:020000040000FA
:100000000209B70152010151010137000238000015
:10001000023A0000015000C100C102C101C1030049
:0A00200075E3C075E10475E23822B3
:0D002B0002070675BB0275BCC143E88022C8
:10003B000208F8E59154045391FB7593FB759237C5
:06004B00439104429122E2
:10005300020817E5C8540453C8FB43C81075CBFF07
:1000630075CAEC43C80442C82275F1FB75D43C221F
:10007300020A430203BEE86480F8E933E8336011FF
:100083000460F0ED33EC337009E8FCE9FDEAFEEBC4
:10009300FF220460DED3EB9FEA9EE99DE8C2E78C72
:1000A300F0C2F795F0400CE8CCF8E9CDF9EACEFAC6
:1000B300EBCFFB12038985D0F05804700320D5B32E
:1000C300E80470075002B2D50203C892D5EC04606D
:1000D300F7E4CCC0E0C398F8603B94186008400D87
:1000E300D0E0FB0203A0E4FBFAC9FC8028E830E47B
:1000F30006E4C9FBE4CAFCE830E305E4C9CACBFC67
:10010300E854076010F8C3E913F9EA13FAEB13FB99
:10011300EC13FCD8F130F52FC3E49CFCEF9BFFEE0E
:100123009AFEED99FDD0E0FBEF4E4D4C701222DBB1
:10013300030203C5EC2CFCEF33FFEE33FEED33FD7E
:10014300ED30E7EB0203A0EF2BFFEE3AFEED39FDB6
:10015300D0E0FB50130BBB00030203C8ED13FDEE0D
:1001630013FEEF13FFEC13FC0203A0EC4D6011E848
:10017300497017ED33EC3304600DE4FCFFFEFD2200
:10018300E933E8330470F80203BE120389580460AC
:1001930009E4CC248150062850090203C8284003EF
:1001A3000203C5C0E0EB4A7044B98006D0E0FB020D
:1001B30003B4EF4E701CBD8008EBFFEAFEE9FD803F
:1001C300EBE98DF0A4FEE5F0020257E9CDF9EAFE72
:1001D300EBFFEF89F0A4FCE5F0CE89F0A42EFFE459
:1001E30035F0CD89F0A42DFEE435F08067EF4E7035
:1001F30005BD80D780C3EF8BF0A4ACF0EE8BF0A4E9
:100203002CFCE435F0F8EF8AF0A42CE5F038FCE49C
:1002130033CB8DF0A42CFCE5F03BF8EE8AF0A42C54
:10022300FCE5F038F8E433CF89F0A42CFCE5F03892
:10023300CF3400CE89F0A42FFFE5F03EFEE433C9AE
:100243008DF0A42EFEE5F039CD8AF0A42FFFE5F062
:100253003EFEE43DFD33D0E0FB50070BBB000F0235
:1002630003C8EC2CFCEF33FFEE33FEED33FD02034A
:10027300A00203C8EC5D046005E85904700302039F
:10028300BE120389580460F6EC4860F2EC7004FD7A
:10029300FEFF22C860DB2481C85009C39860025066
:1002A300060203C59850CAF582E9294B4A7005AB8B
:1002B300820203B475F0007C1A7880C3EF9BEE9A38
:1002C300ED99400DC3EF9BFFEE9AFEED99FDE842D9
:1002D300F0DC23ACF0D0E0FFD0E0FED0E0FDAB8259
:1002E30020E7101BEB60BAEC2CFCEF33FFEE33FE80
:1002F300ED33FD0203A0E803F830E705C0F075F025
:1003030000EF2FFFEE33FEED33FD40B830E7C28040
:10031300AA75F020800E75F010800575F0087D0039
:100323007E007F003392D530D5031203D3EC3340E4
:1003330010EF33FFEE33FEED33FDEC33FCD5F0ED80
:1003430022E5F0247EA2D513CC92E7CDCEFF22ED99
:10035300D2E7CD33EC3392D524814006E4FFFEFD92
:10036300FC22FCE4CFCECDCC24E0501174FF80ED11
:10037300C3CC13CCCD13CDCE13CECF13CF0470F09B
:1003830030D5DE0203D3E9D2E7C933E833F892D597
:10039300EDD2E7CD33EC33FC5002B2D522EC30E79B
:1003A300100FBF000C0EBE00080DBD00040BEB6068
:1003B30014A2D5EB13FCED92E7FD2274FFFCFDFEC6
:1003C300FF22E480F8A2D574FF13FC7D80E480EF64
:1003D300C3E49FFFE49EFEE49DFDE49CFC22D083E6
:1003E300D082F8E4937012740193700DA3A393F871
:1003F300740193F5828883E4737402936860EFA3B6
:10040300A3A380DF75F008758200EF2FFFEE33FEA4
:10041300CD33CDCC33CCC58233C5829BED9AEC99D9
:10042300E58298400CF582EE9BFEED9AFDEC99FC7B
:100433000FD5F0D6E4CEFBE4CDFAE4CCF9A88222C2
:10044300B800C1B90059BA002DEC8BF084CFCECDE2
:10045300FCE5F0CBF97818EF2FFFEE33FEED33FD1B
:10046300EC33FCEB33FB10D703994004EB99FB0F00
:10047300D8E5E4F9FA227818EF2FFFEE33FEED33D7
:10048300FDEC33FCC933C910D7059BE99A4007EC4F
:100493009BFCE99AF90FD8E0E4C9FAE4CCFB227596
:1004A300F010EF2FFFEE33FEED33FDCC33CCC8332A
:1004B300C810D7079BEC9AE899400AED9BFDEC9A8C
:1004C300FCE899F80FD5F0DAE4CDFBE4CCFAE4C804
:1004D300F922756101755D01755F01755B017569D0
:1004E30001E4F56AF56B756E01F56FF570756301DF
:1004F30075680A755301755A05120AD9E4FF7E0A15
:1005030090000074EEF0A3DEFC20000302068E30A0
:10051300023A900014E024FE600302068C9000155A
:10052300E0FF5401F55BEF5402F55DEF5404F55F12
:10053300EF5408F561EF5410F553EF5420F563EFD2
:100543005440F569EF5480F56E02068C900014E078
:100553001203E1059600059F0105A802060404069F
:100563003406063807063C0806400906440C0648CC
:100573000D064C0E06500F06541206641406681539
:10058300065C16066C18067019067824067F280088
:100593000006869000007411F002068C900000742F
:1005A3000BF002068CE4F517E56E5401C4333333C4
:1005B30054802517F517E5695401C4333354C02516
:1005C30017F517E5635401C43354E02517F517E510
:1005D300535401C454F02517F517E561540133331F
:1005E3003354F82517F517E55F540125E025E02579
:1005F30017F517E55D540125E02517F517E55B8031
:1006030028E4F517E5625401251733333354F8F51D
:1006130017E560540125E025E02517F517E55E543D
:100623000125E02517F517E55C54012517F517801B
:100633003EE555803AE5548036E5578032E55680ED
:100643002EE565802AE5648026E5678022E56680DD
:100653001E900000E56DF08030900000E572F080A0
:1006630028E56B800AE56A8006E5708002E56F90F5
:100673000000F08014E4F58AF58C800DE4F58BF529
:100683008D800690000074DDF0C200200103020596
:100693000CE55B6006A284E433F55CE55D60097FED
:1006A300002083027F018F5EE55F6006A285E4334D
:1006B300F560E56160097F002092027F018F62E5AA
:1006C300536002D203E563B40102D2ECE4F56AF5A8
:1006D3006BAF8CF56A8F6BE56BFEAD8A7C00E42D06
:1006E300F56BEC3EF56AE4F56FF570AF8DF56F8F42
:1006F30070E570FEAD8BE42DF570EC3EF56FC20135
:1007030002050CC0E0C0F0C083C082C0D075D00029
:10071300C000C001C002C003C004C005C006C007BA
:10072300751000750F00750E00750D00E550C3942C
:100733000A4003755000E55025E0243CF8A6CD0897
:10074300A6CC751400751300751200751100E4FB37
:10075300EB25E0243CF8E6FE08E6FFE4FCFDE514A7
:100763002FF514E5133EF513ED3512F512EC3511A3
:10077300F5110BBB0ADAAF14AE13AD12AC11E47B67
:100783000AFAF9F8120A958F148E138D128C11EC54
:100793001203147B117AC779FA783E12016E1203A1
:1007A300528E158F16E55025E0243CF8E6FC08E64A
:1007B300FDE41203197B9A7AAC792A783E12016E12
:1007C300E4FBFAF978401202771203528E548F55E4
:1007D300AC15AD16EC1203197B7E7A3A79AE783EEE
:1007E30012016EE4FBFAF978401202771203528E7B
:1007F300568F570550C2CFC2CED007D006D005D0F2
:1008030004D003D002D001D000D0D0D082D083D086
:10081300F0D0E032C0E0C0F0C083C082C0D075D059
:1008230000C000C001C002C003C004C005C006C0B0
:1008330007AFBEEFFEADBDEDFFE537C3940A40033E
:10084300753700E53725E02423F8A60608A6070533
:1008530037750B00750A00750900750800750C00E3
:10086300AB0BAA0AA909A808C000C001C002C003B3
:10087300E50C25E02423F8E6FC08E6FDE412031961
:10088300D003D002D001D00012007D8F0B8E0A8DD1
:10089300098C08050CE50CB40AC6E4FBFA79207848
:1008A30041AF0BAE0AAD09AC081202777B157AAAE9
:1008B30079BF783B12016E8F0B8E0A8D098C08E489
:1008C300FFFE7D7A7C44AB0BAA0AA909A808120192
:1008D3006E1203528E668F67C2EDD007D006D00525
:1008E300D004D003D002D001D000D0D0D082D083A6
:1008F300D0F0D0E032C0E0C083C082C0D075D00059
:10090300C00730C2030209A1E5C054F0603F24F0E0
:10091300605A24D0605A24F0607224307072C2C5C9
:10092300752101752201E5C254FEFFBF141BD2C11C
:10093300E5C230E01274FF2521F582E434FFF5832C
:10094300E0F5C20521805D805BC2C1805AD2C174CB
:10095300132522F582E43400F583E5C2F0E522C3D2
:10096300955250040522803FD200803BC2C4803799
:1009730030C134E521D39551502D74FF2521F582E3
:10098300E434FFF583E0F5C20521801BC2C4801463
:1009930053C17F43C180C2C5C2C4C2C18006C2C5A0
:1009A300C2C4C2C1755201C2C0D007D0D0D082D058
:1009B30083D0E032787FE4F6D8FD7581720209FEB8
:1009C3000204D5E493A3F8E493A34003F68001F271
:1009D30008DFF48029E493A3F85407240CC8C33335
:1009E300C4540F4420C8834004F456800146F6DF04
:1009F300E4800B0102040810204080900003E47E91
:100A0300019360BCA3FF543F30E509541FFEE493F8
:100A1300A360010ECF54C025E060A840B8E493A3BF
:100A2300FAE493A3F8E493A3C8C582C8CAC583CAEA
:100A3300F0A3C8C582C8CAC583CADFE9DEE780BEA2
:100A4300C0E0C0D0300311209104D291800AC2913A
:100A5300C203753800753901E5394538600F3090A8
:100A63000C75CD0075CC00753800753900C3E53BB6
:100A730094D0E53A648094874008D201753A0075B2
:100A83003B00053BE53B7002053A53913FD0D0D084
:100A9300E032C2D5E830E70FB2D5E4C39BFBE49A5A
:100AA300FAE499F9E498F8EC30E717B2D5120ACBD7
:100AB300120443E4C39BFBE49AFAE499F9E498F83B
:100AC300800312044330D50DE4C39FFFE49EFEE48C
:100AD3009DFDE49CFC22120B3112006C120B3812A8
:100AE300002012002E120B44120B40120B031200B3
:100AF3005612003E120B13120B1D120B3C020B2756
:100B0300AF885388AFEF5440FEEF54104E42882213
:100B1300758E447589444388552275D71453C1FC97
:100B230043C1922275E68975F38175A8A022759752
:100B3300DE7597AD2275A5022275E4FE22E4F5A9C0
:050B43002275D10C2217
:00000001FF
